{
  "contractName": "Gallery",
  "abi": [
    {
      "constant": true,
      "inputs": [],
      "name": "name",
      "outputs": [
        {
          "name": "",
          "type": "string"
        }
      ],
      "payable": false,
      "stateMutability": "view",
      "type": "function"
    },
    {
      "constant": true,
      "inputs": [],
      "name": "linkSourceCode",
      "outputs": [
        {
          "name": "",
          "type": "string"
        }
      ],
      "payable": false,
      "stateMutability": "view",
      "type": "function"
    },
    {
      "constant": true,
      "inputs": [
        {
          "name": "_tokenId",
          "type": "uint256"
        }
      ],
      "name": "getApproved",
      "outputs": [
        {
          "name": "",
          "type": "address"
        }
      ],
      "payable": false,
      "stateMutability": "view",
      "type": "function"
    },
    {
      "constant": false,
      "inputs": [
        {
          "name": "_to",
          "type": "address"
        },
        {
          "name": "_tokenId",
          "type": "uint256"
        }
      ],
      "name": "approve",
      "outputs": [],
      "payable": false,
      "stateMutability": "nonpayable",
      "type": "function"
    },
    {
      "constant": true,
      "inputs": [],
      "name": "totalSupply",
      "outputs": [
        {
          "name": "",
          "type": "uint256"
        }
      ],
      "payable": false,
      "stateMutability": "view",
      "type": "function"
    },
    {
      "constant": false,
      "inputs": [
        {
          "name": "_from",
          "type": "address"
        },
        {
          "name": "_to",
          "type": "address"
        },
        {
          "name": "_tokenId",
          "type": "uint256"
        }
      ],
      "name": "transferFrom",
      "outputs": [],
      "payable": false,
      "stateMutability": "nonpayable",
      "type": "function"
    },
    {
      "constant": true,
      "inputs": [
        {
          "name": "_owner",
          "type": "address"
        },
        {
          "name": "_index",
          "type": "uint256"
        }
      ],
      "name": "tokenOfOwnerByIndex",
      "outputs": [
        {
          "name": "",
          "type": "uint256"
        }
      ],
      "payable": false,
      "stateMutability": "view",
      "type": "function"
    },
    {
      "constant": false,
      "inputs": [],
      "name": "unpause",
      "outputs": [],
      "payable": false,
      "stateMutability": "nonpayable",
      "type": "function"
    },
    {
      "constant": false,
      "inputs": [
        {
          "name": "_from",
          "type": "address"
        },
        {
          "name": "_to",
          "type": "address"
        },
        {
          "name": "_tokenId",
          "type": "uint256"
        }
      ],
      "name": "safeTransferFrom",
      "outputs": [],
      "payable": false,
      "stateMutability": "nonpayable",
      "type": "function"
    },
    {
      "constant": true,
      "inputs": [],
      "name": "linkMeta",
      "outputs": [
        {
          "name": "",
          "type": "string"
        }
      ],
      "payable": false,
      "stateMutability": "view",
      "type": "function"
    },
    {
      "constant": true,
      "inputs": [
        {
          "name": "_tokenId",
          "type": "uint256"
        }
      ],
      "name": "exists",
      "outputs": [
        {
          "name": "",
          "type": "bool"
        }
      ],
      "payable": false,
      "stateMutability": "view",
      "type": "function"
    },
    {
      "constant": true,
      "inputs": [
        {
          "name": "_index",
          "type": "uint256"
        }
      ],
      "name": "tokenByIndex",
      "outputs": [
        {
          "name": "",
          "type": "uint256"
        }
      ],
      "payable": false,
      "stateMutability": "view",
      "type": "function"
    },
    {
      "constant": true,
      "inputs": [],
      "name": "paused",
      "outputs": [
        {
          "name": "",
          "type": "bool"
        }
      ],
      "payable": false,
      "stateMutability": "view",
      "type": "function"
    },
    {
      "constant": true,
      "inputs": [
        {
          "name": "_tokenId",
          "type": "uint256"
        }
      ],
      "name": "ownerOf",
      "outputs": [
        {
          "name": "",
          "type": "address"
        }
      ],
      "payable": false,
      "stateMutability": "view",
      "type": "function"
    },
    {
      "constant": false,
      "inputs": [
        {
          "name": "_linkMeta",
          "type": "string"
        }
      ],
      "name": "setMetaLink",
      "outputs": [],
      "payable": false,
      "stateMutability": "nonpayable",
      "type": "function"
    },
    {
      "constant": true,
      "inputs": [
        {
          "name": "_owner",
          "type": "address"
        }
      ],
      "name": "balanceOf",
      "outputs": [
        {
          "name": "",
          "type": "uint256"
        }
      ],
      "payable": false,
      "stateMutability": "view",
      "type": "function"
    },
    {
      "constant": false,
      "inputs": [],
      "name": "destroy",
      "outputs": [],
      "payable": false,
      "stateMutability": "nonpayable",
      "type": "function"
    },
    {
      "constant": false,
      "inputs": [
        {
          "name": "_linkSourceCode",
          "type": "string"
        }
      ],
      "name": "setSourceLink",
      "outputs": [],
      "payable": false,
      "stateMutability": "nonpayable",
      "type": "function"
    },
    {
      "constant": false,
      "inputs": [],
      "name": "pause",
      "outputs": [],
      "payable": false,
      "stateMutability": "nonpayable",
      "type": "function"
    },
    {
      "constant": true,
      "inputs": [],
      "name": "owner",
      "outputs": [
        {
          "name": "",
          "type": "address"
        }
      ],
      "payable": false,
      "stateMutability": "view",
      "type": "function"
    },
    {
      "constant": true,
      "inputs": [],
      "name": "symbol",
      "outputs": [
        {
          "name": "",
          "type": "string"
        }
      ],
      "payable": false,
      "stateMutability": "view",
      "type": "function"
    },
    {
      "constant": true,
      "inputs": [],
      "name": "linkABI",
      "outputs": [
        {
          "name": "",
          "type": "string"
        }
      ],
      "payable": false,
      "stateMutability": "view",
      "type": "function"
    },
    {
      "constant": false,
      "inputs": [
        {
          "name": "_to",
          "type": "address"
        },
        {
          "name": "_approved",
          "type": "bool"
        }
      ],
      "name": "setApprovalForAll",
      "outputs": [],
      "payable": false,
      "stateMutability": "nonpayable",
      "type": "function"
    },
    {
      "constant": false,
      "inputs": [
        {
          "name": "_linkABI",
          "type": "string"
        }
      ],
      "name": "updateABILink",
      "outputs": [],
      "payable": false,
      "stateMutability": "nonpayable",
      "type": "function"
    },
    {
      "constant": false,
      "inputs": [
        {
          "name": "_from",
          "type": "address"
        },
        {
          "name": "_to",
          "type": "address"
        },
        {
          "name": "_tokenId",
          "type": "uint256"
        },
        {
          "name": "_data",
          "type": "bytes"
        }
      ],
      "name": "safeTransferFrom",
      "outputs": [],
      "payable": false,
      "stateMutability": "nonpayable",
      "type": "function"
    },
    {
      "constant": true,
      "inputs": [
        {
          "name": "_tokenId",
          "type": "uint256"
        }
      ],
      "name": "tokenURI",
      "outputs": [
        {
          "name": "",
          "type": "string"
        }
      ],
      "payable": false,
      "stateMutability": "view",
      "type": "function"
    },
    {
      "constant": true,
      "inputs": [
        {
          "name": "_owner",
          "type": "address"
        },
        {
          "name": "_operator",
          "type": "address"
        }
      ],
      "name": "isApprovedForAll",
      "outputs": [
        {
          "name": "",
          "type": "bool"
        }
      ],
      "payable": false,
      "stateMutability": "view",
      "type": "function"
    },
    {
      "constant": false,
      "inputs": [
        {
          "name": "newOwner",
          "type": "address"
        }
      ],
      "name": "transferOwnership",
      "outputs": [],
      "payable": false,
      "stateMutability": "nonpayable",
      "type": "function"
    },
    {
      "constant": false,
      "inputs": [
        {
          "name": "_recipient",
          "type": "address"
        }
      ],
      "name": "destroyAndSend",
      "outputs": [],
      "payable": false,
      "stateMutability": "nonpayable",
      "type": "function"
    },
    {
      "inputs": [
        {
          "name": "_galleryName",
          "type": "string"
        },
        {
          "name": "_gallerySymbol",
          "type": "string"
        },
        {
          "name": "_artistName",
          "type": "string"
        },
        {
          "name": "_galleryDescription",
          "type": "string"
        },
        {
          "name": "_linkToScene",
          "type": "string"
        }
      ],
      "payable": true,
      "stateMutability": "payable",
      "type": "constructor"
    },
    {
      "anonymous": false,
      "inputs": [
        {
          "indexed": false,
          "name": "name",
          "type": "string"
        },
        {
          "indexed": false,
          "name": "CID",
          "type": "string"
        },
        {
          "indexed": false,
          "name": "pictureID",
          "type": "uint256"
        }
      ],
      "name": "PictureAdded",
      "type": "event"
    },
    {
      "anonymous": false,
      "inputs": [
        {
          "indexed": false,
          "name": "pictureID",
          "type": "uint256"
        }
      ],
      "name": "PictureSelled",
      "type": "event"
    },
    {
      "anonymous": false,
      "inputs": [],
      "name": "Pause",
      "type": "event"
    },
    {
      "anonymous": false,
      "inputs": [],
      "name": "Unpause",
      "type": "event"
    },
    {
      "anonymous": false,
      "inputs": [
        {
          "indexed": false,
          "name": "linkMeta",
          "type": "string"
        }
      ],
      "name": "MetaLinkUpdated",
      "type": "event"
    },
    {
      "anonymous": false,
      "inputs": [
        {
          "indexed": false,
          "name": "linkABI",
          "type": "string"
        }
      ],
      "name": "ABILinkUpdated",
      "type": "event"
    },
    {
      "anonymous": false,
      "inputs": [
        {
          "indexed": false,
          "name": "linkSource",
          "type": "string"
        }
      ],
      "name": "SourceLinkUpdated",
      "type": "event"
    },
    {
      "anonymous": false,
      "inputs": [
        {
          "indexed": true,
          "name": "previousOwner",
          "type": "address"
        },
        {
          "indexed": true,
          "name": "newOwner",
          "type": "address"
        }
      ],
      "name": "OwnershipTransferred",
      "type": "event"
    },
    {
      "anonymous": false,
      "inputs": [
        {
          "indexed": true,
          "name": "_from",
          "type": "address"
        },
        {
          "indexed": true,
          "name": "_to",
          "type": "address"
        },
        {
          "indexed": false,
          "name": "_tokenId",
          "type": "uint256"
        }
      ],
      "name": "Transfer",
      "type": "event"
    },
    {
      "anonymous": false,
      "inputs": [
        {
          "indexed": true,
          "name": "_owner",
          "type": "address"
        },
        {
          "indexed": true,
          "name": "_approved",
          "type": "address"
        },
        {
          "indexed": false,
          "name": "_tokenId",
          "type": "uint256"
        }
      ],
      "name": "Approval",
      "type": "event"
    },
    {
      "anonymous": false,
      "inputs": [
        {
          "indexed": true,
          "name": "_owner",
          "type": "address"
        },
        {
          "indexed": true,
          "name": "_operator",
          "type": "address"
        },
        {
          "indexed": false,
          "name": "_approved",
          "type": "bool"
        }
      ],
      "name": "ApprovalForAll",
      "type": "event"
    },
    {
      "constant": true,
      "inputs": [],
      "name": "getArtistName",
      "outputs": [
        {
          "name": "",
          "type": "string"
        }
      ],
      "payable": false,
      "stateMutability": "view",
      "type": "function"
    },
    {
      "constant": true,
      "inputs": [],
      "name": "getGalleryDescription",
      "outputs": [
        {
          "name": "",
          "type": "string"
        }
      ],
      "payable": false,
      "stateMutability": "view",
      "type": "function"
    },
    {
      "constant": true,
      "inputs": [],
      "name": "getSceneLink",
      "outputs": [
        {
          "name": "",
          "type": "string"
        }
      ],
      "payable": false,
      "stateMutability": "view",
      "type": "function"
    },
    {
      "constant": false,
      "inputs": [
        {
          "name": "_newScene",
          "type": "string"
        }
      ],
      "name": "updateSceneLink",
      "outputs": [],
      "payable": false,
      "stateMutability": "nonpayable",
      "type": "function"
    },
    {
      "constant": false,
      "inputs": [
        {
          "name": "_pictureName",
          "type": "string"
        },
        {
          "name": "_pictureDescription",
          "type": "string"
        },
        {
          "name": "_pictureCID",
          "type": "string"
        },
        {
          "name": "_price",
          "type": "uint256"
        }
      ],
      "name": "addPicture",
      "outputs": [],
      "payable": false,
      "stateMutability": "nonpayable",
      "type": "function"
    },
    {
      "constant": false,
      "inputs": [
        {
          "name": "_pictureID",
          "type": "uint256"
        }
      ],
      "name": "buyPicture",
      "outputs": [],
      "payable": true,
      "stateMutability": "payable",
      "type": "function"
    },
    {
      "constant": true,
      "inputs": [],
      "name": "picturesCount",
      "outputs": [
        {
          "name": "",
          "type": "uint256"
        }
      ],
      "payable": false,
      "stateMutability": "view",
      "type": "function"
    },
    {
      "constant": true,
      "inputs": [
        {
          "name": "_pictureID",
          "type": "uint256"
        }
      ],
      "name": "getPicture",
      "outputs": [
        {
          "name": "",
          "type": "string"
        },
        {
          "name": "",
          "type": "string"
        },
        {
          "name": "",
          "type": "string"
        },
        {
          "name": "",
          "type": "uint256"
        },
        {
          "name": "",
          "type": "uint256"
        }
      ],
      "payable": false,
      "stateMutability": "view",
      "type": "function"
    }
  ],
  "bytecode": "0x60606040526000600f60006101000a81548160ff021916908315150217905550604051620039373803806200393783398101604052808051820191906020018051820191906020018051820191906020018051820191906020018051820191905050848481600490805190602001906200007b9291906200012e565b508060059080519060200190620000949291906200012e565b50505033600b60006101000a81548173ffffffffffffffffffffffffffffffffffffffff021916908373ffffffffffffffffffffffffffffffffffffffff1602179055508060109080519060200190620000f09291906200012e565b508260119080519060200190620001099291906200012e565b508160129080519060200190620001229291906200012e565b505050505050620001dd565b828054600181600116156101000203166002900490600052602060002090601f016020900481019282601f106200017157805160ff1916838001178555620001a2565b82800160010185558215620001a2579182015b82811115620001a157825182559160200191906001019062000184565b5b509050620001b19190620001b5565b5090565b620001da91905b80821115620001d6576000816000905550600101620001bc565b5090565b90565b61374a80620001ed6000396000f3006060604052600436106101cd576000357c0100000000000000000000000000000000000000000000000000000000900463ffffffff1680630329d9d2146101d257806305c8489c1461023157806306fdde03146103b357806307b1f8f714610441578063081812fc146104cf578063095ea7b31461053257806318160ddd1461057457806319f1a5f81461059d57806323b872dd146105c6578063290bac31146106275780632f745c59146106b557806332f49d001461070b5780633f4ba83a1461073957806342842e0e1461074e5780634dfaf97a146107af5780634f558e791461083d5780634f6ccce71461087857806353bbaf00146108af5780635c975abb146108c75780636352211e146108f45780636d2fd1381461095757806370a082311461098557806383197ef0146109d257806383ca00ac146109e75780638456cb5914610a155780638da5cb5b14610a2a57806395d89b4114610a7f5780639e925a7814610b0d578063a18d003614610b9b578063a22cb46514610c29578063acab3bd514610c6d578063b88d4fde14610c9b578063c87b56dd14610d3f578063e102006d14610ddb578063e985e9c514610e69578063f2fde38b14610ed9578063f5074f4114610f12575b600080fd5b34156101dd57600080fd5b61022f6004808035906020019082018035906020019190919290803590602001908201803590602001919091929080359060200190820180359060200191909192908035906020019091905050610f4b565b005b341561023c57600080fd5b610252600480803590602001909190505061119d565b60405180806020018060200180602001868152602001858152602001848103845289818151815260200191508051906020019080838360005b838110156102a657808201518184015260208101905061028b565b50505050905090810190601f1680156102d35780820380516001836020036101000a031916815260200191505b50848103835288818151815260200191508051906020019080838360005b8381101561030c5780820151818401526020810190506102f1565b50505050905090810190601f1680156103395780820380516001836020036101000a031916815260200191505b50848103825287818151815260200191508051906020019080838360005b83811015610372578082015181840152602081019050610357565b50505050905090810190601f16801561039f5780820380516001836020036101000a031916815260200191505b509850505050505050505060405180910390f35b34156103be57600080fd5b6103c6611441565b6040518080602001828103825283818151815260200191508051906020019080838360005b838110156104065780820151818401526020810190506103eb565b50505050905090810190601f1680156104335780820380516001836020036101000a031916815260200191505b509250505060405180910390f35b341561044c57600080fd5b6104546114e9565b6040518080602001828103825283818151815260200191508051906020019080838360005b83811015610494578082015181840152602081019050610479565b50505050905090810190601f1680156104c15780820380516001836020036101000a031916815260200191505b509250505060405180910390f35b34156104da57600080fd5b6104f06004808035906020019091905050611591565b604051808273ffffffffffffffffffffffffffffffffffffffff1673ffffffffffffffffffffffffffffffffffffffff16815260200191505060405180910390f35b341561053d57600080fd5b610572600480803573ffffffffffffffffffffffffffffffffffffffff169060200190919080359060200190919050506115ce565b005b341561057f57600080fd5b610587611794565b6040518082815260200191505060405180910390f35b34156105a857600080fd5b6105b06117a1565b6040518082815260200191505060405180910390f35b34156105d157600080fd5b610625600480803573ffffffffffffffffffffffffffffffffffffffff1690602001909190803573ffffffffffffffffffffffffffffffffffffffff169060200190919080359060200190919050506117ae565b005b341561063257600080fd5b61063a6118c5565b6040518080602001828103825283818151815260200191508051906020019080838360005b8381101561067a57808201518184015260208101905061065f565b50505050905090810190601f1680156106a75780820380516001836020036101000a031916815260200191505b509250505060405180910390f35b34156106c057600080fd5b6106f5600480803573ffffffffffffffffffffffffffffffffffffffff1690602001909190803590602001909190505061196d565b6040518082815260200191505060405180910390f35b341561071657600080fd5b610737600480803590602001908201803590602001919091929050506119e5565b005b341561074457600080fd5b61074c611a57565b005b341561075957600080fd5b6107ad600480803573ffffffffffffffffffffffffffffffffffffffff1690602001909190803573ffffffffffffffffffffffffffffffffffffffff16906020019091908035906020019091905050611b17565b005b34156107ba57600080fd5b6107c2611b4f565b6040518080602001828103825283818151815260200191508051906020019080838360005b838110156108025780820151818401526020810190506107e7565b50505050905090810190601f16801561082f5780820380516001836020036101000a031916815260200191505b509250505060405180910390f35b341561084857600080fd5b61085e6004808035906020019091905050611bf7565b604051808215151515815260200191505060405180910390f35b341561088357600080fd5b6108996004808035906020019091905050611c68565b6040518082815260200191505060405180910390f35b6108c56004808035906020019091905050611ca1565b005b34156108d257600080fd5b6108da611da1565b604051808215151515815260200191505060405180910390f35b34156108ff57600080fd5b6109156004808035906020019091905050611db4565b604051808273ffffffffffffffffffffffffffffffffffffffff1673ffffffffffffffffffffffffffffffffffffffff16815260200191505060405180910390f35b341561096257600080fd5b61098360048080359060200190820180359060200191909192905050611e31565b005b341561099057600080fd5b6109bc600480803573ffffffffffffffffffffffffffffffffffffffff16906020019091905050611ef4565b6040518082815260200191505060405180910390f35b34156109dd57600080fd5b6109e5611f78565b005b34156109f257600080fd5b610a136004808035906020019082018035906020019190919290505061200f565b005b3415610a2057600080fd5b610a286120d2565b005b3415610a3557600080fd5b610a3d612193565b604051808273ffffffffffffffffffffffffffffffffffffffff1673ffffffffffffffffffffffffffffffffffffffff16815260200191505060405180910390f35b3415610a8a57600080fd5b610a926121b9565b6040518080602001828103825283818151815260200191508051906020019080838360005b83811015610ad2578082015181840152602081019050610ab7565b50505050905090810190601f168015610aff5780820380516001836020036101000a031916815260200191505b509250505060405180910390f35b3415610b1857600080fd5b610b20612261565b6040518080602001828103825283818151815260200191508051906020019080838360005b83811015610b60578082015181840152602081019050610b45565b50505050905090810190601f168015610b8d5780820380516001836020036101000a031916815260200191505b509250505060405180910390f35b3415610ba657600080fd5b610bae612309565b6040518080602001828103825283818151815260200191508051906020019080838360005b83811015610bee578082015181840152602081019050610bd3565b50505050905090810190601f168015610c1b5780820380516001836020036101000a031916815260200191505b509250505060405180910390f35b3415610c3457600080fd5b610c6b600480803573ffffffffffffffffffffffffffffffffffffffff1690602001909190803515159060200190919050506123b1565b005b3415610c7857600080fd5b610c99600480803590602001908201803590602001919091929050506124ed565b005b3415610ca657600080fd5b610d3d600480803573ffffffffffffffffffffffffffffffffffffffff1690602001909190803573ffffffffffffffffffffffffffffffffffffffff1690602001909190803590602001909190803590602001908201803590602001908080601f016020809104026020016040519081016040528093929190818152602001838380828437820191505050505050919050506125b0565b005b3415610d4a57600080fd5b610d6060048080359060200190919050506125ef565b6040518080602001828103825283818151815260200191508051906020019080838360005b83811015610da0578082015181840152602081019050610d85565b50505050905090810190601f168015610dcd5780820380516001836020036101000a031916815260200191505b509250505060405180910390f35b3415610de657600080fd5b610dee6126be565b6040518080602001828103825283818151815260200191508051906020019080838360005b83811015610e2e578082015181840152602081019050610e13565b50505050905090810190601f168015610e5b5780820380516001836020036101000a031916815260200191505b509250505060405180910390f35b3415610e7457600080fd5b610ebf600480803573ffffffffffffffffffffffffffffffffffffffff1690602001909190803573ffffffffffffffffffffffffffffffffffffffff16906020019091905050612766565b604051808215151515815260200191505060405180910390f35b3415610ee457600080fd5b610f10600480803573ffffffffffffffffffffffffffffffffffffffff169060200190919050506127fa565b005b3415610f1d57600080fd5b610f49600480803573ffffffffffffffffffffffffffffffffffffffff16906020019091905050612952565b005b610f5361345e565b6000600b60009054906101000a900473ffffffffffffffffffffffffffffffffffffffff1673ffffffffffffffffffffffffffffffffffffffff163373ffffffffffffffffffffffffffffffffffffffff16141515610fb157600080fd5b60a0604051908101604052808a8a8080601f016020809104026020016040519081016040528093929190818152602001838380828437820191505050505050815260200188888080601f016020809104026020016040519081016040528093929190818152602001838380828437820191505050505050815260200186868080601f016020809104026020016040519081016040528093929190818152602001838380828437820191505050505050815260200184815260200142815250915060016013805480600101828161108791906134a0565b9160005260206000209060050201600085909190915060008201518160000190805190602001906110b99291906134d2565b5060208201518160010190805190602001906110d69291906134d2565b5060408201518160020190805190602001906110f39291906134d2565b506060820151816003015560808201518160040155505003905061111733826129c7565b7f0b9d6f32a1f1f7d4b700a355f76b341978652e03b3b56f817d2175aa16f4c1df8989878785604051808060200180602001848152602001838103835288888281815260200192508082843782019150508381038252868682818152602001925080828437820191505097505050505050505060405180910390a1505050505050505050565b6111a5613552565b6111ad613552565b6111b5613552565b6000806013868154811015156111c757fe5b90600052602060002090600502016000016013878154811015156111e757fe5b906000526020600020906005020160010160138881548110151561120757fe5b906000526020600020906005020160020160138981548110151561122757fe5b90600052602060002090600502016003015460138a81548110151561124857fe5b906000526020600020906005020160040154848054600181600116156101000203166002900480601f0160208091040260200160405190810160405280929190818152602001828054600181600116156101000203166002900480156112ef5780601f106112c4576101008083540402835291602001916112ef565b820191906000526020600020905b8154815290600101906020018083116112d257829003601f168201915b50505050509450838054600181600116156101000203166002900480601f01602080910402602001604051908101604052809291908181526020018280546001816001161561010002031660029004801561138b5780601f106113605761010080835404028352916020019161138b565b820191906000526020600020905b81548152906001019060200180831161136e57829003601f168201915b50505050509350828054600181600116156101000203166002900480601f0160208091040260200160405190810160405280929190818152602001828054600181600116156101000203166002900480156114275780601f106113fc57610100808354040283529160200191611427565b820191906000526020600020905b81548152906001019060200180831161140a57829003601f168201915b505050505092509450945094509450945091939590929450565b611449613552565b60048054600181600116156101000203166002900480601f0160208091040260200160405190810160405280929190818152602001828054600181600116156101000203166002900480156114df5780601f106114b4576101008083540402835291602001916114df565b820191906000526020600020905b8154815290600101906020018083116114c257829003601f168201915b5050505050905090565b6114f1613552565b600e8054600181600116156101000203166002900480601f0160208091040260200160405190810160405280929190818152602001828054600181600116156101000203166002900480156115875780601f1061155c57610100808354040283529160200191611587565b820191906000526020600020905b81548152906001019060200180831161156a57829003601f168201915b5050505050905090565b60006001600083815260200190815260200160002060009054906101000a900473ffffffffffffffffffffffffffffffffffffffff169050919050565b60006115d982611db4565b90508073ffffffffffffffffffffffffffffffffffffffff168373ffffffffffffffffffffffffffffffffffffffff161415151561161657600080fd5b8073ffffffffffffffffffffffffffffffffffffffff163373ffffffffffffffffffffffffffffffffffffffff16148061165657506116558133612766565b5b151561166157600080fd5b600073ffffffffffffffffffffffffffffffffffffffff1661168283611591565b73ffffffffffffffffffffffffffffffffffffffff161415806116d25750600073ffffffffffffffffffffffffffffffffffffffff168373ffffffffffffffffffffffffffffffffffffffff1614155b1561178f57826001600084815260200190815260200160002060006101000a81548173ffffffffffffffffffffffffffffffffffffffff021916908373ffffffffffffffffffffffffffffffffffffffff1602179055508273ffffffffffffffffffffffffffffffffffffffff168173ffffffffffffffffffffffffffffffffffffffff167f8c5be1e5ebec7d5bd14f71427d1e84f3dd0314c0f7b2291e5b200ac8c7c3b925846040518082815260200191505060405180910390a35b505050565b6000600880549050905090565b6000601380549050905090565b806117b93382612a1b565b15156117c457600080fd5b600073ffffffffffffffffffffffffffffffffffffffff168473ffffffffffffffffffffffffffffffffffffffff161415151561180057600080fd5b600073ffffffffffffffffffffffffffffffffffffffff168373ffffffffffffffffffffffffffffffffffffffff161415151561183c57600080fd5b6118468483612ab0565b6118508483612c19565b61185a8383612e34565b8273ffffffffffffffffffffffffffffffffffffffff168473ffffffffffffffffffffffffffffffffffffffff167fddf252ad1be2c89b69c2b068fc378daa952ba7f163c4a11628f55a4df523b3ef846040518082815260200191505060405180910390a350505050565b6118cd613552565b60108054600181600116156101000203166002900480601f0160208091040260200160405190810160405280929190818152602001828054600181600116156101000203166002900480156119635780601f1061193857610100808354040283529160200191611963565b820191906000526020600020905b81548152906001019060200180831161194657829003601f168201915b5050505050905090565b600061197883611ef4565b8210151561198557600080fd5b600660008473ffffffffffffffffffffffffffffffffffffffff1673ffffffffffffffffffffffffffffffffffffffff168152602001908152602001600020828154811015156119d157fe5b906000526020600020900154905092915050565b600b60009054906101000a900473ffffffffffffffffffffffffffffffffffffffff1673ffffffffffffffffffffffffffffffffffffffff163373ffffffffffffffffffffffffffffffffffffffff16141515611a4157600080fd5b818160109190611a52929190613566565b505050565b600b60009054906101000a900473ffffffffffffffffffffffffffffffffffffffff1673ffffffffffffffffffffffffffffffffffffffff163373ffffffffffffffffffffffffffffffffffffffff16141515611ab357600080fd5b600f60009054906101000a900460ff161515611ace57600080fd5b6000600f60006101000a81548160ff0219169083151502179055507f7805862f689e2f13df9f062ff482ad3ad112aca9e0847911ed832e158c525b3360405160405180910390a1565b80611b223382612a1b565b1515611b2d57600080fd5b611b4984848460206040519081016040528060008152506125b0565b50505050565b611b57613552565b600d8054600181600116156101000203166002900480601f016020809104026020016040519081016040528092919081815260200182805460018160011615610100020316600290048015611bed5780601f10611bc257610100808354040283529160200191611bed565b820191906000526020600020905b815481529060010190602001808311611bd057829003601f168201915b5050505050905090565b60008060008084815260200190815260200160002060009054906101000a900473ffffffffffffffffffffffffffffffffffffffff169050600073ffffffffffffffffffffffffffffffffffffffff168173ffffffffffffffffffffffffffffffffffffffff161415915050919050565b6000611c72611794565b82101515611c7f57600080fd5b600882815481101515611c8e57fe5b9060005260206000209001549050919050565b601381815481101515611cb057fe5b90600052602060002090600502016003015434141515611ccf57600080fd5b611cfb600b60009054906101000a900473ffffffffffffffffffffffffffffffffffffffff1682612c19565b611d053382612e34565b600b60009054906101000a900473ffffffffffffffffffffffffffffffffffffffff1673ffffffffffffffffffffffffffffffffffffffff166108fc349081150290604051600060405180830381858888f193505050501515611d6757600080fd5b7fec738111c1d82a8955f8d852aaac37f0b4806e828eab70030d8b62d66036c739816040518082815260200191505060405180910390a150565b600f60009054906101000a900460ff1681565b60008060008084815260200190815260200160002060009054906101000a900473ffffffffffffffffffffffffffffffffffffffff169050600073ffffffffffffffffffffffffffffffffffffffff168173ffffffffffffffffffffffffffffffffffffffff1614151515611e2857600080fd5b80915050919050565b600b60009054906101000a900473ffffffffffffffffffffffffffffffffffffffff1673ffffffffffffffffffffffffffffffffffffffff163373ffffffffffffffffffffffffffffffffffffffff16141515611e8d57600080fd5b8181600d9190611e9e929190613566565b507f6362a59ae98fef1a0a45d03a1127a82c2268ca380148117a052b9f8bce8e6f1e8282604051808060200182810382528484828181526020019250808284378201915050935050505060405180910390a15050565b60008073ffffffffffffffffffffffffffffffffffffffff168273ffffffffffffffffffffffffffffffffffffffff1614151515611f3157600080fd5b600260008373ffffffffffffffffffffffffffffffffffffffff1673ffffffffffffffffffffffffffffffffffffffff168152602001908152602001600020549050919050565b600b60009054906101000a900473ffffffffffffffffffffffffffffffffffffffff1673ffffffffffffffffffffffffffffffffffffffff163373ffffffffffffffffffffffffffffffffffffffff16141515611fd457600080fd5b600b60009054906101000a900473ffffffffffffffffffffffffffffffffffffffff1673ffffffffffffffffffffffffffffffffffffffff16ff5b600b60009054906101000a900473ffffffffffffffffffffffffffffffffffffffff1673ffffffffffffffffffffffffffffffffffffffff163373ffffffffffffffffffffffffffffffffffffffff1614151561206b57600080fd5b8181600e919061207c929190613566565b507fcfaf57d92b1b2684731a770c593d162587ca98e9d372be876ab14b389866f0f68282604051808060200182810382528484828181526020019250808284378201915050935050505060405180910390a15050565b600b60009054906101000a900473ffffffffffffffffffffffffffffffffffffffff1673ffffffffffffffffffffffffffffffffffffffff163373ffffffffffffffffffffffffffffffffffffffff1614151561212e57600080fd5b600f60009054906101000a900460ff1615151561214a57600080fd5b6001600f60006101000a81548160ff0219169083151502179055507f6985a02210a168e66602d3235cb6db0e70f92b3ba4d376a33c0f3d9434bff62560405160405180910390a1565b600b60009054906101000a900473ffffffffffffffffffffffffffffffffffffffff1681565b6121c1613552565b60058054600181600116156101000203166002900480601f0160208091040260200160405190810160405280929190818152602001828054600181600116156101000203166002900480156122575780601f1061222c57610100808354040283529160200191612257565b820191906000526020600020905b81548152906001019060200180831161223a57829003601f168201915b5050505050905090565b612269613552565b600c8054600181600116156101000203166002900480601f0160208091040260200160405190810160405280929190818152602001828054600181600116156101000203166002900480156122ff5780601f106122d4576101008083540402835291602001916122ff565b820191906000526020600020905b8154815290600101906020018083116122e257829003601f168201915b5050505050905090565b612311613552565b60128054600181600116156101000203166002900480601f0160208091040260200160405190810160405280929190818152602001828054600181600116156101000203166002900480156123a75780601f1061237c576101008083540402835291602001916123a7565b820191906000526020600020905b81548152906001019060200180831161238a57829003601f168201915b5050505050905090565b3373ffffffffffffffffffffffffffffffffffffffff168273ffffffffffffffffffffffffffffffffffffffff16141515156123ec57600080fd5b80600360003373ffffffffffffffffffffffffffffffffffffffff1673ffffffffffffffffffffffffffffffffffffffff16815260200190815260200160002060008473ffffffffffffffffffffffffffffffffffffffff1673ffffffffffffffffffffffffffffffffffffffff16815260200190815260200160002060006101000a81548160ff0219169083151502179055508173ffffffffffffffffffffffffffffffffffffffff163373ffffffffffffffffffffffffffffffffffffffff167f17307eab39ab6107e8899845ad3d59bd9653f200f220920489ca2b5937696c3183604051808215151515815260200191505060405180910390a35050565b600b60009054906101000a900473ffffffffffffffffffffffffffffffffffffffff1673ffffffffffffffffffffffffffffffffffffffff163373ffffffffffffffffffffffffffffffffffffffff1614151561254957600080fd5b8181600c919061255a929190613566565b507f97bc322e754962c4ff23eb8a9d58b147ead5be0347d9a799addc5a2d44564cbe8282604051808060200182810382528484828181526020019250808284378201915050935050505060405180910390a15050565b816125bb3382612a1b565b15156125c657600080fd5b6125d18585856117ae565b6125dd85858585612f08565b15156125e857600080fd5b5050505050565b6125f7613552565b61260082611bf7565b151561260b57600080fd5b600a60008381526020019081526020016000208054600181600116156101000203166002900480601f0160208091040260200160405190810160405280929190818152602001828054600181600116156101000203166002900480156126b25780601f10612687576101008083540402835291602001916126b2565b820191906000526020600020905b81548152906001019060200180831161269557829003601f168201915b50505050509050919050565b6126c6613552565b60118054600181600116156101000203166002900480601f01602080910402602001604051908101604052809291908181526020018280546001816001161561010002031660029004801561275c5780601f106127315761010080835404028352916020019161275c565b820191906000526020600020905b81548152906001019060200180831161273f57829003601f168201915b5050505050905090565b6000600360008473ffffffffffffffffffffffffffffffffffffffff1673ffffffffffffffffffffffffffffffffffffffff16815260200190815260200160002060008373ffffffffffffffffffffffffffffffffffffffff1673ffffffffffffffffffffffffffffffffffffffff16815260200190815260200160002060009054906101000a900460ff16905092915050565b600b60009054906101000a900473ffffffffffffffffffffffffffffffffffffffff1673ffffffffffffffffffffffffffffffffffffffff163373ffffffffffffffffffffffffffffffffffffffff1614151561285657600080fd5b600073ffffffffffffffffffffffffffffffffffffffff168173ffffffffffffffffffffffffffffffffffffffff161415151561289257600080fd5b8073ffffffffffffffffffffffffffffffffffffffff16600b60009054906101000a900473ffffffffffffffffffffffffffffffffffffffff1673ffffffffffffffffffffffffffffffffffffffff167f8be0079c531659141344cd1fd0a4f28419497f9722a3daafe3b4186f6b6457e060405160405180910390a380600b60006101000a81548173ffffffffffffffffffffffffffffffffffffffff021916908373ffffffffffffffffffffffffffffffffffffffff16021790555050565b600b60009054906101000a900473ffffffffffffffffffffffffffffffffffffffff1673ffffffffffffffffffffffffffffffffffffffff163373ffffffffffffffffffffffffffffffffffffffff161415156129ae57600080fd5b8073ffffffffffffffffffffffffffffffffffffffff16ff5b6129d182826130de565b600880549050600960008381526020019081526020016000208190555060088054806001018281612a0291906135e6565b9160005260206000209001600083909190915055505050565b600080612a2783611db4565b90508073ffffffffffffffffffffffffffffffffffffffff168473ffffffffffffffffffffffffffffffffffffffff161480612a9657508373ffffffffffffffffffffffffffffffffffffffff16612a7e84611591565b73ffffffffffffffffffffffffffffffffffffffff16145b80612aa75750612aa68185612766565b5b91505092915050565b8173ffffffffffffffffffffffffffffffffffffffff16612ad082611db4565b73ffffffffffffffffffffffffffffffffffffffff16141515612af257600080fd5b600073ffffffffffffffffffffffffffffffffffffffff166001600083815260200190815260200160002060009054906101000a900473ffffffffffffffffffffffffffffffffffffffff1673ffffffffffffffffffffffffffffffffffffffff16141515612c155760006001600083815260200190815260200160002060006101000a81548173ffffffffffffffffffffffffffffffffffffffff021916908373ffffffffffffffffffffffffffffffffffffffff160217905550600073ffffffffffffffffffffffffffffffffffffffff168273ffffffffffffffffffffffffffffffffffffffff167f8c5be1e5ebec7d5bd14f71427d1e84f3dd0314c0f7b2291e5b200ac8c7c3b925836040518082815260200191505060405180910390a35b5050565b6000806000612c28858561318e565b60076000858152602001908152602001600020549250612c946001600660008873ffffffffffffffffffffffffffffffffffffffff1673ffffffffffffffffffffffffffffffffffffffff168152602001908152602001600020805490506132bc90919063ffffffff16565b9150600660008673ffffffffffffffffffffffffffffffffffffffff1673ffffffffffffffffffffffffffffffffffffffff16815260200190815260200160002082815481101515612ce257fe5b906000526020600020900154905080600660008773ffffffffffffffffffffffffffffffffffffffff1673ffffffffffffffffffffffffffffffffffffffff16815260200190815260200160002084815481101515612d3d57fe5b9060005260206000209001819055506000600660008773ffffffffffffffffffffffffffffffffffffffff1673ffffffffffffffffffffffffffffffffffffffff16815260200190815260200160002083815481101515612d9a57fe5b906000526020600020900181905550600660008673ffffffffffffffffffffffffffffffffffffffff1673ffffffffffffffffffffffffffffffffffffffff168152602001908152602001600020805480919060019003612dfb9190613612565b50600060076000868152602001908152602001600020819055508260076000838152602001908152602001600020819055505050505050565b6000612e4083836132d5565b600660008473ffffffffffffffffffffffffffffffffffffffff1673ffffffffffffffffffffffffffffffffffffffff168152602001908152602001600020805490509050600660008473ffffffffffffffffffffffffffffffffffffffff1673ffffffffffffffffffffffffffffffffffffffff1681526020019081526020016000208054806001018281612ed691906135e6565b916000526020600020900160008490919091505550806007600084815260200190815260200160002081905550505050565b600080612f2a8573ffffffffffffffffffffffffffffffffffffffff1661342d565b1515612f3957600191506130d5565b8473ffffffffffffffffffffffffffffffffffffffff1663f0b9e5ba8786866000604051602001526040518463ffffffff167c0100000000000000000000000000000000000000000000000000000000028152600401808473ffffffffffffffffffffffffffffffffffffffff1673ffffffffffffffffffffffffffffffffffffffff16815260200183815260200180602001828103825283818151815260200191508051906020019080838360005b83811015613004578082015181840152602081019050612fe9565b50505050905090810190601f1680156130315780820380516001836020036101000a031916815260200191505b50945050505050602060405180830381600087803b151561305157600080fd5b6102c65a03f1151561306257600080fd5b50505060405180519050905063f0b9e5ba7c0100000000000000000000000000000000000000000000000000000000027bffffffffffffffffffffffffffffffffffffffffffffffffffffffff1916817bffffffffffffffffffffffffffffffffffffffffffffffffffffffff19161491505b50949350505050565b600073ffffffffffffffffffffffffffffffffffffffff168273ffffffffffffffffffffffffffffffffffffffff161415151561311a57600080fd5b6131248282612e34565b8173ffffffffffffffffffffffffffffffffffffffff16600073ffffffffffffffffffffffffffffffffffffffff167fddf252ad1be2c89b69c2b068fc378daa952ba7f163c4a11628f55a4df523b3ef836040518082815260200191505060405180910390a35050565b8173ffffffffffffffffffffffffffffffffffffffff166131ae82611db4565b73ffffffffffffffffffffffffffffffffffffffff161415156131d057600080fd5b6132236001600260008573ffffffffffffffffffffffffffffffffffffffff1673ffffffffffffffffffffffffffffffffffffffff168152602001908152602001600020546132bc90919063ffffffff16565b600260008473ffffffffffffffffffffffffffffffffffffffff1673ffffffffffffffffffffffffffffffffffffffff16815260200190815260200160002081905550600080600083815260200190815260200160002060006101000a81548173ffffffffffffffffffffffffffffffffffffffff021916908373ffffffffffffffffffffffffffffffffffffffff1602179055505050565b60008282111515156132ca57fe5b818303905092915050565b600073ffffffffffffffffffffffffffffffffffffffff1660008083815260200190815260200160002060009054906101000a900473ffffffffffffffffffffffffffffffffffffffff1673ffffffffffffffffffffffffffffffffffffffff1614151561334257600080fd5b8160008083815260200190815260200160002060006101000a81548173ffffffffffffffffffffffffffffffffffffffff021916908373ffffffffffffffffffffffffffffffffffffffff1602179055506133e66001600260008573ffffffffffffffffffffffffffffffffffffffff1673ffffffffffffffffffffffffffffffffffffffff1681526020019081526020016000205461344090919063ffffffff16565b600260008473ffffffffffffffffffffffffffffffffffffffff1673ffffffffffffffffffffffffffffffffffffffff168152602001908152602001600020819055505050565b600080823b905060008111915050919050565b600080828401905083811015151561345457fe5b8091505092915050565b60a06040519081016040528061347261363e565b815260200161347f61363e565b815260200161348c61363e565b815260200160008152602001600081525090565b8154818355818115116134cd576005028160050283600052602060002091820191016134cc9190613652565b5b505050565b828054600181600116156101000203166002900490600052602060002090601f016020900481019282601f1061351357805160ff1916838001178555613541565b82800160010185558215613541579182015b82811115613540578251825591602001919060010190613525565b5b50905061354e91906136b1565b5090565b602060405190810160405280600081525090565b828054600181600116156101000203166002900490600052602060002090601f016020900481019282601f106135a757803560ff19168380011785556135d5565b828001600101855582156135d5579182015b828111156135d45782358255916020019190600101906135b9565b5b5090506135e291906136b1565b5090565b81548183558181151161360d5781836000526020600020918201910161360c91906136b1565b5b505050565b8154818355818115116136395781836000526020600020918201910161363891906136b1565b5b505050565b602060405190810160405280600081525090565b6136ae91905b808211156136aa576000808201600061367191906136d6565b60018201600061368191906136d6565b60028201600061369191906136d6565b6003820160009055600482016000905550600501613658565b5090565b90565b6136d391905b808211156136cf5760008160009055506001016136b7565b5090565b90565b50805460018160011615610100020316600290046000825580601f106136fc575061371b565b601f01602090049060005260206000209081019061371a91906136b1565b5b505600a165627a7a723058201f7a878469b4d942826af694dee0a6c768b22dc832f7fdd1ce8be097cb71aee80029",
  "source": "pragma solidity ^0.4.19;\n\nimport \"zeppelin-solidity/contracts/lifecycle/Destructible.sol\";\nimport \"zeppelin-solidity/contracts/token/ERC721/ERC721Token.sol\";\nimport \"zeppelin-solidity/contracts/math/SafeMath.sol\";\nimport \"zeppelin-solidity/contracts/AddressUtils.sol\";\nimport \"zeppelin-solidity/contracts/lifecycle/Pausable.sol\";\nimport \"./IPFSeable.sol\";\n\n\ncontract Gallery is ERC721Token, IPFSeable, Pausable, Destructible{\n\n    using SafeMath for uint256;\n    using AddressUtils for address;\n\n    string internal linkToScene_;\n    string internal artistName_;\n    string internal galleryDescription_;\n\n    struct Picture {\n        string pictureName;\n        string pictureDescription;\n        string pictureCID;\n        uint price;\n        uint timestamp;\n    }\n\n    Picture[] internal pictures;\n\n    event PictureAdded(string name, string CID, uint pictureID);\n    event PictureSelled(uint256 pictureID);\n\n    function Gallery(\n        string _galleryName,\n        string _gallerySymbol,\n        string _artistName,\n        string _galleryDescription,\n        string _linkToScene\n    )\n        ERC721Token(_galleryName, _gallerySymbol)\n        public\n        payable\n    {\n        linkToScene_ = _linkToScene;\n        artistName_ = _artistName;\n        galleryDescription_ = _galleryDescription;\n    }\n\n    function getArtistName()\n        public\n        view\n        returns(string)\n    {\n        return artistName_;\n    }\n\n    function getGalleryDescription()\n        public\n        view\n        returns(string)\n    {\n        return galleryDescription_;\n    }\n\n    function getSceneLink()\n        public\n        view\n        returns(string)\n    {\n        return linkToScene_;\n    }\n\n    function updateSceneLink(string _newScene)\n        external\n        onlyOwner\n    {\n        linkToScene_ = _newScene;\n    }\n\n    function addPicture(string _pictureName, string _pictureDescription, string _pictureCID, uint _price)\n        external\n        onlyOwner\n    {\n        Picture memory picture = (Picture(\n        {\n            pictureName: _pictureName,\n            pictureDescription: _pictureDescription,\n            pictureCID: _pictureCID,\n            price: _price,\n            timestamp: block.timestamp\n        }));\n        uint256 pictureID = pictures.push(picture) - 1;\n        _mint(msg.sender, pictureID);\n        PictureAdded(_pictureName, _pictureCID, pictureID);\n    }\n\n    function buyPicture(uint _pictureID)\n        external\n        payable\n    {\n        require(msg.value == pictures[_pictureID].price);\n        super.removeTokenFrom(owner, _pictureID);\n        super.addTokenTo(msg.sender, _pictureID);\n        owner.transfer(msg.value);\n\n        PictureSelled(_pictureID);\n    }\n\n    function picturesCount() constant public returns (uint) {\n        return pictures.length;\n    }\n\n    function getPicture(uint _pictureID)\n        public\n        view\n        returns (string, string, string, uint, uint)\n    {\n        return(\n            pictures[_pictureID].pictureName,\n            pictures[_pictureID].pictureDescription,\n            pictures[_pictureID].pictureCID,\n            pictures[_pictureID].price,\n            pictures[_pictureID].timestamp\n        );\n    }\n}\n",
  "sourcePath": "/Users/andrey/projects/cyberFund/hackaton/cyber-Gallery/contracts/Gallery.sol",
  "compiler": {
    "name": "solc",
    "version": "0.4.19+commit.c4cbbb05.Emscripten.clang"
  },
  "schemaVersion": "2.0.0",
  "updatedAt": "2018-04-22T14:35:13.331Z"
}